:020000021000EC
:10F000000C9480F80C9497F80C9497F80C9497F85B
:10F010000C9497F80C9497F80C9497F80C9497F834
:10F020000C9497F80C9497F80C9497F80C9497F824
:10F030000C9497F80C9497F80C9497F80C9497F814
:10F040000C9497F80C9497F80C9497F80C9497F804
:10F050000C9497F80C9497F80C9497F80C9497F8F4
:10F060000C9497F80C9497F80C9497F80C9497F8E4
:10F070000C9497F80C9497F80C9497F80C9497F8D4
:10F080000C9497F80C9497F80C9497F811241FBEE1
:10F090008FEF90E19EBF8DBF03C452756E6E696E97
:10F0A000672041707020202020200054494E4148A4
:10F0B000426F6F7420302E312E30200052756E6EEC
:10F0C000696E672041707020202020200052756EEC
:10F0D0006E696E67204170702020202020005761EB
:10F0E000697420666F722075706C6F6164200052C5
:10F0F000756E6E696E6720417070202020202000A0
:10F1000011241FBECFEFD0E1DEBFCDBF11E0A0E0E4
:10F11000B1E0E2E4FAEF01E00BBF02C007900D920C
:10F12000A430B107D9F70E9450FC0C94FBFC0C945E
:10F1300000F82F923F924F925F926F927F928F9240
:10F140009F92AF92BF92CF92DF92EF92FF920F9376
:10F150001F93CF93DF93CDB7DEB7CF51D1400FB61A
:10F16000F894DEBF0FBECDBF412C512C3201912C43
:10F17000D12C312C212C55E0852E10E000E044C02C
:10F180008B3169F48BE1D82EFF24F39408C08130D1
:10F1900011F0891139C0D826982E42E0F42E0E9431
:10F1A0008BFB96E09F1590F1EF2DF0E0E350F340DC
:10F1B0000C94D6FC082F10E0102F0027D82633E03F
:10F1C000F32EEDCF082BD82694E0F92EE8CF8E3021
:10F1D000D9F4D826312C212C85E0F82EE0CF9101EE
:10F1E0002F5F3F4FE1E0F0E0EC0FFD1FE20DF31D5C
:10F1F0008083D82619012017310789F61801B6E057
:10F20000FB2ECDCF8D1529F0F12CC9CFE7E0FE12F2
:10F21000C6CF8981EFEFE80FED3108F099C1F0E03A
:10F22000EC5FF2400C94D6FC9D8180E0903341F479
:10F230008F81882309F451C0813009F450C082E0E5
:10F240001A821B829C839E819D838E831F82C12C88
:10F2500007E010E08BE10E94BAFA892D0E94BAFA09
:10F26000812F0E94BAFAD92CD126802F0E94BAFA97
:10F27000D0268EE00E94BAFA85E1D826EE24E394E7
:10F28000F12CEC0EFD1EE00EF11E8E010F5F1F4FE4
:10F29000E016F10609F05FC18D2D0E94BAFA939431
:10F2A000CC2009F46ACFC15EDE4F0FB6F894DEBF02
:10F2B0000FBECDBFDF91CF911F910F91FF90EF90C7
:10F2C000DF90CF90BF90AF909F908F907F906F9086
:10F2D0005F904F903F902F9008958EE1B1CF87E9D6
:10F2E000AFCF1A8288E08B8383E58C8384E58D839E
:10F2F0008BE48E8385E38F8380E3888789878FE51E
:10F300008A8782E38B87C12C0BE010E0A3CFEA81D0
:10F31000E05980E0E33020F4F0E0E050FF4F8081DE
:10F320001A828B83C12C03E010E094CFCC24C394C9
:10F330001A8202E010E08ECFC12CFACF8D81882393
:10F3400029F0813029F082E01A820BC08EE1FCCFD7
:10F3500087E9FACF1A8289E0E1E0F0E08093680063
:10F3600084918B831C82C12C04E010E073CF8B81CD
:10F37000803571F48C81883039F489E0E2E0F0E086
:10F38000809368008491E0CF89E0F0E0E0E0F8CF7E
:10F3900089E0E3E0F0E0F4CF6A817B818C819D819C
:10F3A0000E94DFFC2B013C011A82C12CC2CFAA8033
:10F3B000BB80BA24AB24BA24833109F047C0B3011F
:10F3C000A201440F551F661F771FA3E0FA2EFA0112
:10F3D00060935B00F0926800E8958091680080FD82
:10F3E000FCCF8B85DE01119693018201000F111F66
:10F3F000221F331F1B969C911B97FF24F3940C0133
:10F40000F80120935B00F0926800E89511248FEFDB
:10F41000481A580A680A780A92E0A91AB10812969E
:10F42000A114B10421F01A968C911A97DDCFFA013C
:10F4300060935B0080926800E8958091680080FD91
:10F44000FCCF81E180936800E895AECF8E01055F27
:10F450001F4F62017501E40CF51CF80161918F01E9
:10F46000C6010E94EEFCFFEFCF1ADF0AEC14FD0488
:10F47000A1F781E0A81AB108D12CC12C9FEFA91ADD
:10F48000B90AC90AD90A4A0C5B1C6C1C7D1C8CCFBA
:10F49000EA80FB80FE24EF24FE2487010D5F1F4FCE
:10F4A0001A82843119F5DE011196B301A201440FCD
:10F4B000551F661F771F6BBFFA0147915691129631
:10F4C0004C931297FD01349613965C9313978FEF2C
:10F4D000481A580A680A780A92E0E91AF10812965E
:10F4E000E114F10411F71082C12CB4CE6201F701CE
:10F4F000E40DF51DC25EDE4FF983E883CE51D140A5
:10F500005E01F3E0AF0EB11CC6010E94E6FCF501FE
:10F5100081935F01FFEFCF1ADF0AC25EDE4F888161
:10F520009981CE51D1408C159D0571F7C701019786
:10F53000B0E0A0E00196A11DB11D480E591E6A1E43
:10F540007B1EE3E0F0E0EC0FFD1FEE0DFF1DCBCFC7
:10F5500080EC8A832ACFF801B1908F018B2D0E9415
:10F56000BAFADB2495CE5F9BFECF08950E94B3FAD2
:10F570008CB108955D9BFECF8CB908959B01AC01C1
:10F5800057FF1CC0599A50954095309521953F4F93
:10F590004F4F5F4F60E074E284EF90E00E94B4FC54
:10F5A0002C5F3F4F4F4F5F4F83E056954795379500
:10F5B00027958A95D1F7215029B90895599860E087
:10F5C00072E18AE790E0EACF89B3881F8827881F15
:10F5D0000895CF99FECF0895C3988BBB8FEF8ABB58
:10F5E000C49895E09A95F1F70000C49A95E09A9531
:10F5F000F1F70000C49895E09A95F1F700001ABA67
:10F600008BBBC39AC298C49A0895C2980C94ECFA22
:10F61000CF93BA9ABB9ABC9A1ABA9FEF9BBBC39A74
:10F62000C298C49AC82FC0638C2F0E9405FB8FE438
:10F6300096E40197F1F700C000008C2F0E9405FBB3
:10F640008FE193E00197F1F700C000008C2F0E943A
:10F6500005FB87EC90E00197F1F700C000008C2FCC
:10F660000E9405FB87EC90E00197F1F700C00000D5
:10F6700081E00E9405FB8FE39FE10197F1F700C055
:10F680000000CF910895C29A0C94ECFA1F921F9239
:10F690001F920895FFCF815008F40895909165005E
:10F6A0009160909365002FEF30E792E02150304059
:10F6B0009040E1F700C00000909165009E7F90931C
:10F6C00065002FEF30E792E0215030409040E1F7A5
:10F6D00000C00000E0CFCF92DF92EF92FF926B016B
:10F6E0007C012FEFC21AD20AE20AF20A8BBFFB0199
:10F6F0008791811105C0FF90EF90DF90CF90089522
:10F700000E9443FB87EC90E00197F1F700C00000F6
:10F71000C701B601E4CF81E098EAA1E6B0E05F99C5
:10F720000C94B6FA0197A109B109C9F787EC90E0EA
:10F730000197F1F700C0000080EC0E9405FB87EC08
:10F7400090E00197F1F700C000006FEE70EF072E18
:10F75000000C880B990B0E946BFB9FEF29E688E158
:10F76000915020408040E1F700C000000E9446FB1D
:10F770008F929F92AF92BF92CF92DF92EF92FF92C1
:10F78000CF93DF93C0E0C12CD12C76018EED90EFAA
:10F790004C01990FAA08BB08D1E05F9B0BC0DF9119
:10F7A000CF91FF90EF90DF90CF90BF90AF909F9060
:10F7B0008F9008958091630081FD15C087EC90E0E3
:10F7C0000197F1F700C0000080EC0E9405FB87EC78
:10F7D00090E00197F1F700C00000C501B4010E945C
:10F7E0006BFBD09304018091630082FD1DC087EC08
:10F7F00090E00197F1F700C0000080EC0E9405FB4B
:10F8000087EC90E00197F1F700C000006DEC70EF1D
:10F81000072E000C880B990B0E946BFB80916300F4
:10F8200082FFFCCF0E9446FB809104018111B5CF7D
:10F8300098E4C91698EED90691E0E906F10450F172
:10F84000C03108F187EC90E00197F1F700C00000AB
:10F8500080EC0E9405FB87EC90E00197F1F700C077
:10F8600000006CEB70EF072E000C880B990B0E94C8
:10F870006BFB9FEF29E688E1915020408040E1F743
:10F8800000C00000CFCF8EE20E9443FBCF5FC12CAF
:10F89000D12C76019FEFC91AD90AE90AF90A7DCF5E
:10F8A00084B714BE837011F40E9446FB88E18AB9C4
:10F8B00061E774E38EEF9FEF0E94BEFA80916400CF
:10F8C00081608093640082E00E944BFB88E00E948C
:10F8D00008FB8CE00E9405FB87EC90E00197F1F7B4
:10F8E00000C0000080E80E9405FB87EC90E00197D3
:10F8F000F1F700C000006BEA70EF072E000C880BD8
:10F90000990B0E946BFB80EC0E9405FB87EC90E05A
:10F910000197F1F700C00000109204010E94B8FBAB
:10F920000E9499F887EC90E00197F1F700C0000081
:10F9300080EC0E9405FB87EC90E00197F1F700C096
:10F9400000006AE970EF072E000C880B990B0E94EB
:10F950006BFB9FEF29E688E1915020408040E1F762
:10F9600000C000000E9446FBA1E21A2EAA1BBB1B8E
:10F97000FD010DC0AA1FBB1FEE1FFF1FA217B3077B
:10F98000E407F50720F0A21BB30BE40BF50B661F91
:10F99000771F881F991F1A9469F760957095809555
:10F9A00090959B01AC01BD01CF010895EE0FFF1FA3
:10F9B0000024001C0BBE0790F691E02D09946927E6
:10F9C000962769277827872778270895E199FECF1A
:10F9D0009FBB8EBBE09A99278DB30895262FE1999E
:10F9E000FECF9FBB8EBB2DBB0FB6F894E29AE19A77
:10F9F0000FBE01960895F894FFCFC0F8C7F8DAF863
:10FA0000E2F8E7F8EFF802F971F99CF987F9A8FA3A
:10FA1000A8FACCF9A8FAA8FAA8FAA8FAA8FAA8FAB3
:10FA2000A8FAA8FAA8FA9CF996F9A8FAD7F948FA18
:10FA3000D7F948FAA8FAB7F9A8FAAAF99EF9A8FAE4
:02FA400014F9B7
:04FA42000F020A00A5
:040000031000F000F9
:00000001FF
